S01000006164635F736B656C2E73726563DE
S11300000C9446000C9458000C9458000C9458001E
S11300100C9458000C9458000C9458000C945800FC
S11300200C9458000C9458000C9458000C945800EC
S11300300C9458000C9458000C9458000C945800DC
S11300400C9458000C9458000C9458000C945800CC
S11300500C9458000C9458000C9458000C945800BC
S11300600C9458000C9458000C9458000C945800AC
S11300700C9458000C9458000C9458000C9458009C
S11300800C9458000C9458000C94580011241FBE72
S1130090CFEFD0E1DEBFCDBF21E0A0E0B1E001C0F1
S11300A01D92AC35B207E1F70E9461050C948206FB
S11300B00C940000E1E6F0E0808188608083E2E651
S11300C0F0E08081877F808387B3876087BBC19A94
S11300D080E58DB981E08EB9089591E0811101C068
S11300E090E09FB9779BFECF6FB9779BFECF80914D
S11300F0620088608093620080916200877F8093B1
S113010062008FE99FE00197F1F700C000000895B5
S113011021E02FB9779BFECF20910001FC01E20F73
S1130120F11D80818FB9779BFECF8091620088603A
S11301308093620080916200877F80936200809147
S113014000018F5F80930001803109F1803209F052
S1130150089595ED9A95F1F700001FB8779BFECFAF
S113016082E08FB9779BFECF809162008860809394
S1130170620080916200877F809362008FE99FE034
S11301800197F1F700C0000010920001089585ED79
S11301908A95F1F700001FB8779BFECF80EC8FB9EA
S11301A0779BFECF8091620088608093620080918B
S11301B06200877F809362008FE99FE00197F1F7E7
S11301C000C0000080910001C1CF660F660F660F6A
S11301D0605C1FB8779BFECF6FB9779BFECF2091F1
S11301E0620028602093620020916200277F2093A0
S11301F06200AFE9BFE01197F1F700C00000FC0115
S11302009C01285F3F4F91E081919FB9779BFECF7E
S11302108FB9779BFECF80916200886080936200E3
S113022080916200877F80936200AFE9BFE01197FD
S1130230F1F700C00000E217F30731F7089590E4E6
S1130240899F600D1124605C1FB8779BFECF6FB946
S1130250779BFECF809162008860809362008091DA
S11302606200877F809362008FE99FE00197F1F736
S113027000C000000895811119C081E08FB9779BF7
S1130280FECF80E38FB9779BFECF809162008860B8
S11302908093620080916200877F809362008FE97F
S11302A09FE00197F1F700C0000008958436B0F490
S11302B08A3090F591E09FB9779BFECF9DEC899FA2
S11302C0912D1124969596959695FAE09F9F801905
S11302D01124805D8FB9779BFECFD7CF99E2899F98
S11302E0912D112492959F70905D21E02FB9779BF9
S11302F0FECF9FB9779BFECF909162009860909358
S1130300620090916200977F90936200EFE9FFE0B2
S11303103197F1F700C0000099E2899F912D1124D3
S113032092959F70282FF4E69F9F20191124922FF5
S11303302DEC929F912D1124969596959695905D0E
S113034021E02FB9779BFECF9FB9779BFECF909189
S1130350620098609093620090916200977F9093FE
S11303606200EFE9FFE03197F1F700C00000A2CF8F
S113037087FF0C943B0191E09FB9779BFECF9DE2F0
S11303809FB9779BFECF9091620098609093620032
S113039090916200977F90936200EFE9FFE03197BC
S11303A0F1F700C0000081950C943B011FB8779BC6
S11303B0FECF8EE08FB9779BFECF8091620088607C
S11303C08093620080916200877F809362008FE94E
S11303D09FE00197F1F700C0000008951FB8779BD4
S11303E0FECF8CE08FB9779BFECF8091620088604E
S11303F08093620080916200877F809362008FE91E
S11304009FE00197F1F700C0000008951FB8779BA3
S1130410FECF8EE18FB9779BFECF8091620088601A
S11304208093620080916200877F809362008FE9ED
S11304309FE00197F1F700C0000008951FB8779B73
S1130440FECF88E18FB9779BFECF809162008860F0
S11304508093620080916200877F809362008FE9BD
S11304609FE00197F1F700C000000895E2E6F0E094
S11304708081886080838081877F808308951FB80E
S1130480779BFECF81E08FB9779BFECF809162008E
S113049088608093620080916200877F809362000D
S11304A08FE99FE00197F1F700C0000008951FB89D
S11304B0779BFECF82E08FB9779BFECF809162005D
S11304C088608093620080916200877F80936200DD
S11304D08FE99FE00197F1F700C0000008951FB86D
S11304E0779BFECF80EC8FB9779BFECF8091620023
S11304F088608093620080916200877F80936200AD
S11305008FE99FE00197F1F700C00000089590E1A2
S113051031E020E23FB9779BFECF2FB9779BFECF26
S11305208091620088608093620080916200877F7E
S113053080936200EFE9FFE03197F1F700C000001B
S1130540915041F7089591E09FB9779BFECF8FB901
S1130550779BFECF809162008860809362008091D7
S11305606200877F809362008FE99FE00197F1F733
S113057000C000000895FC0140E050E060E071E03C
S1130580DF01A40FB51F8C917FB9779BFECF8FB984
S1130590779BFECF90916200986090936200909157
S11305A06200977F909362008FE99FE00197F1F7D3
S11305B000C000006F5F462F50E0DF010D90002067
S11305C0E9F79D012E1B3F0B2250310924173507F3
S11305D0B8F608958FEF99EF0197F1F700C0000086
S11305E088E0809361001FB8779BFECF80E38FB9CA
S11305F0779BFECF80916200886080936200809137
S11306006200877F809362008FE99FE00197F1F792
S113061000C000001FB8779BFECF80E38FB9779BA3
S1130620FECF8091620088608093620080916200B6
S1130630877F809362008FE99FE00197F1F700C004
S113064000001FB8779BFECF80E38FB9779BFECF66
S11306508091620088608093620080916200877F4D
S1130660809362008FE99FE00197F1F700C00000DA
S11306701FB8779BFECF88E38FB9779BFECF80911D
S1130680620088608093620080916200877F80931B
S113069062008FE99FE00197F1F700C000001FB8E6
S11306A0779BFECF88E08FB9779BFECF8091620065
S11306B088608093620080916200877F80936200EB
S11306C08FE99FE00197F1F700C000001FB8779B06
S11306D0FECF81E08FB9779BFECF80916200886066
S11306E08093620080916200877F809362008FE92B
S11306F09FE00197F1F700C000001FB8779BFECF81
S113070086E08FB9779BFECF8091620088608093EA
S1130710620080916200877F809362008FE99FE08E
S11307200197F1F700C000001FB8779BFECF8CE063
S11307308FB9779BFECF80916200886080936200BE
S113074080916200877F809362008FE99FE0019728
S1130750F1F700C0000008954F925F926F927F926C
S11307608F929F92AF92BF92CF92DF92EF92FF92BD
S11307700F931F93CF93DF93CDB7DEB769970FB66F
S1130780F894DEBF0FBECDBF142F422E5E2C002383
S113079079F06B017C01CC24F7FCC394DD24EE24B6
S11307A0FF240C2D6B017C0197FDA5C0C701B60188
S11307B0442009F498C09E012F5F3F4F590149011D
S11307C066246A94640C712C3FEF631A730A6A0CF2
S11307D07B1C2AE030E040E050E00E94F805E62F60
S11307E02A8B3B8B4C8B5D8B6A897B898C899D8999
S11307F020E32E0FF40121934F016E167F0649F773
S113080099249394940CF501E40DF11D2EE22083B8
S11308102AE030E040E050E00E94F805E62F2A8B01
S11308203B8B4C8B5D8B6E8B7F8B888F998F6A890A
S11308307B898C899D8931E0390DD501A90DB11DC4
S1130840E05DEC93932E611571058105910501F727
S1130850112361F051104DC090E2311738F4F501C5
S1130860E30FF11D90833F5F1313F9CF002331F0A1
S1130870F501E30FF11D9DE290833F5F21E03150CC
S1130880F501E30FF11D90812FB9779BFECF9FB93E
S1130890779BFECF90916200986090936200909154
S11308A06200977F909362008FE99FE00197F1F7D0
S11308B000C000003111E3CF69960FB6F894DEBF93
S11308C00FBECDBFDF91CF911F910F91FF90EF909D
S11308D0DF90CF90BF90AF909F908F907F906F905C
S11308E05F904F900895912C9E012F5F3F4F5901C7
S11308F08FCF90E3B2CFF094E094D094C094C11C15
S1130900D11CE11CF11C52CF5F926F927F928F92A7
S11309109F92AF92BF92CF92DF92EF92FF920F938A
S11309201F93CF93DF93CDB7DEB761970FB6F894DB
S1130930DEBF0FBECDBF5C01962E542E622E8B2CD3
S1130940881C8824881C782C9C0197FD9FC0552006
S113095009F490C08E010F5F1F4F7801CC24CA9414
S1130960C50CD12C8FEFC81AD80AC00ED11E6AE06C
S113097070E0C9010E94E405462F242F372F805DC3
S1130980F70181937F01EC15FD0589F7FF24F394AA
S1130990F50CF801E50DF11D8EE2808301C0F92EFE
S11309A06AE070E0C9010E94E405462F242F372F26
S11309B091E09F0DF801EF0DF11D805D80832115FD
S11309C0310569F761105BC0B7FC65C09920B1F0CF
S11309D0682D70E080E2292F30E0492D50E0461B5D
S11309E0570B2417350754F49F5FF801E20FF31FE8
S11309F08083292F30E024173507B4F3772031F0B2
S1130A00F801E90FF11D8DE280839F5F21E0915091
S1130A10F801E90FF11D80812FB9779BFECF8FB9C3
S1130A20779BFECF80916200886080936200809102
S1130A306200877F80936200EFE9FFE03197F1F76E
S1130A4000C000009111E3CF61960FB6F894DEBFA9
S1130A500FBECDBFDF91CF911F910F91FF90EF900B
S1130A60DF90CF90BF90AF909F908F907F906F90CA
S1130A705F900895F12C8E010F5F1F4F91CF992045
S1130A8009F4BCCF682D70E080E3A5CF222733277B
S1130A90281B390B5CCFF394F394F801E90FF11D93
S1130AA08DE28083992059F02F2D30E0492D50E0BC
S1130AB02417350724F49F2D712C80E295CF9F2DA8
S1130AC0A5CF80916100886080936100809162006D
S1130AD0877F8093620087B3876087BBC19A80E574
S1130AE08DB981E08EB90E94EA020E943F02809192
S1130AF061008F7780936100809162008F7780938B
S1130B00620087B1876487B986B1876886B9C4E60D
S1130B10369A349BFECF449A84B195B190930201E6
S1130B20809301016DEC70E00E94E4059B016093E9
S1130B3028017093290180932A0190932B014AE0A4
S1130B4068E171E0C9010E944D0680912A019091EB
S1130B502B016DEC70E09C01C29FC001C39F900DFE
S1130B6011240E94E4059B01609314017093150104
S1130B7080931601909317014AE063E071E0C90184
S1130B800E944D0688E191E00E94BB028EE20E9421
S1130B90A30283E091E00E94BB02109213013FEF95
S1130BA080E792E0315080409040E1F700C00000BF
S1130BB0809113018F5F809313018B3080F30E9427
S1130BC03F020E945702A4CF97FB072E16F400940D
S1130BD007D077FD09D00E94170607FC05D03EF424
S1130BE0909581959F4F0895709561957F4F0895D5
S1130BF0052E97FB1EF400940E940F0657FD07D0A4
S1130C000E942B0607FC03D04EF40C940F0650955B
S1130C104095309521953F4F4F4F5F4F08959095E4
S1130C208095709561957F4F8F4F9F4F0895AA1BB4
S1130C30BB1B51E107C0AA1FBB1FA617B70710F0C3
S1130C40A61BB70B881F991F5A95A9F780959095F5
S1130C50BC01CD010895A1E21A2EAA1BBB1BFD0104
S1130C600DC0AA1FBB1FEE1FFF1FA217B307E40787
S1130C70F50720F0A21BB30BE40BF50B661F771FDF
S1130C80881F991F1A9469F76095709580959095BF
S1130C909B01AC01BD01CF010895BB274A3031F45B
S1130CA0992322F4BDE2909581959F4F0C945906A7
S1130CB0BB27FB015527AA27880F991FAA1FA41732
S1130CC010F0A41B83955051B9F7A05DAA3308F026
S1130CD0A95DA193009779F7B111B1931192CB015A
S1130CE00C947206DC01FC01672F71917723E1F704
S1130CF0329704C07C916D9370836291AE17BF07E5
S10B0D00C8F30895F894FFCF35
S9030000FC
