S01D00006261725F67726170685F6E6F696E74735F736B656C2E7372656359
S11300000C9446000C9450000C9450000C94500036
S11300100C9450000C9450000C9450000C9450001C
S11300200C9450000C9450000C9450000C9450000C
S11300300C9450000C9450000C9450000C945000FC
S11300400C9450000C9450000C9450000C945000EC
S11300500C9450000C9450000C9450000C945000DC
S11300600C9450000C9450000C9450000C945000CC
S11300700C9450000C9450000C9450000C945000BC
S11300800C9450000C9450000C94500011241FBE8A
S1130090CFEFD0E1DEBFCDBF0E945A000C94980090
S11300A00C94000087B3876087BB8CE58DB981E031
S11300B08EB9089587B3876087BB8CE58DB981E0DD
S11300C08EB980E08FB9779BFECFC09AC098880F15
S11300D009F481E02FEF31EE94E02150304090405C
S11300E0E1F700C000002FEF31EE94E021503040E2
S11300F09040E1F700C000002FEF31EE94E0215072
S113010030409040E1F700C000002FEF31EE94E062
S1130110215030409040E1F700C000002FEF31EE55
S113012094E0215030409040E1F700C00000CACF75
S1070130F894FFCF6D
S9030000FC
