:100000000C9446000C9465000C9465000C946500FB
:100010000C9465000C9465000C9465000C946500CC
:100020000C9465000C9465000C9465000C946500BC
:100030000C9465000C9465000C9465000C946500AC
:100040000C9465000C9465000C9465000C9465009C
:100050000C9465000C9465000C9465000C9465008C
:100060000C9465000C9465000C9465000C9465007C
:100070000C9465000C9465000C9465000C9465006C
:100080000C9465000C9465000C94650011241FBE4F
:10009000CFEFD0E1DEBFCDBF11E0A0E0B1E0E6E000
:1000A000FEE000E00BBF02C007900D92A637B1073B
:1000B000D9F721E0A6E7B1E001C01D92A73AB20747
:1000C000E1F70E9425050C9401070C94000087B30A
:1000D000876087BB80E58DB981E08EB9089591E096
:1000E000811101C090E09FB9779BFECF6FB9779BDC
:1000F000FECF8091620088608093620080916200F0
:10010000877F80936200089520917601820F911D70
:10011000FC01808191E09FB9779BFECF8FB9779BDF
:10012000FECF8091620088608093620080916200BF
:10013000877F80936200809176018F5F8093760144
:100140008031F9F0803209F00895E5EDEA95F1F794
:1001500000001FB8779BFECF80E88FB9779BFECF5A
:100160008091620088608093620080916200877F46
:1001700080936200F5EDFA95F1F700001092760198
:100180000895F5EDFA95F1F700001FB8779BFECFC3
:1001900080EC8FB9779BFECF80916200886080935E
:1001A000620080916200877F8093620085ED8A956E
:1001B000F1F7000080917601C5CF660F660F660FDC
:1001C000605C1FB8779BFECF6FB9779BFECF209105
:1001D000620028602093620020916200277F2093B4
:1001E000620025ED2A95F1F70000FC019C01285FD3
:1001F0003F4F91E081919FB9779BFECF8FB9779B5D
:10020000FECF8091620088608093620080916200DE
:10021000877F8093620085ED8A95F1F70000E217F1
:10022000F30741F7089590E4899F600D1124605C05
:100230001FB8779BFECF6FB9779BFECF809162008E
:1002400088608093620080916200877F8093620063
:100250000895811113C081E08FB9779BFECF80E3B1
:100260008FB9779BFECF8091620088608093620097
:1002700080916200877F8093620008958436B0F495
:100280008A3060F591E09FB9779BFECF9DEC899F06
:10029000912D11249695969596952AE0929F801916
:1002A0001124805D8FB9779BFECFDDCF99E2899FC6
:1002B000912D112492959F70905D21E02FB9779B2D
:1002C000FECF9FB9779BFECF90916200986090938C
:1002D000620090916200977F9093620099E2899FFB
:1002E000912D112492959F70382F24E6929F3019FA
:1002F00011242DEC329F912D11249695969596956B
:10030000905D21E02FB9779BFECF9FB9779BFECF01
:100310009091620098609093620090916200977F44
:1003200090936200AFCF87FF0C94290191E09FB9B1
:10033000779BFECF9DE29FB9779BFECF90916200A5
:1003400098609093620090916200977F9093620012
:1003500095ED9A95F1F7000081950C9429011FB84D
:10036000779BFECF8EE08FB9779BFECF80916200A6
:1003700088608093620080916200877F8093620032
:1003800008951FB8779BFECF8CE08FB9779BFECF87
:100390008091620088608093620080916200877F14
:1003A0008093620008951FB8779BFECF8EE18FB9CE
:1003B000779BFECF8091620088608093620080917D
:1003C0006200877F8093620008951FB8779BFECFFD
:1003D00088E18FB9779BFECF80916200886080931F
:1003E000620080916200877F809362000895E2E658
:1003F000F0E08081886080838081877F808308959A
:100400001FB8779BFECF81E08FB9779BFECF80919D
:10041000620088608093620080916200877F809391
:1004200062008FE19CE10197F1F700C000000895A0
:100430001FB8779BFECF82E08FB9779BFECF80916C
:10044000620088608093620080916200877F809361
:1004500062008FE697E10197F1F700C00000089570
:100460001FB8779BFECF80EC8FB9779BFECF809132
:10047000620088608093620080916200877F809331
:10048000620085ED8A95F1F7000008951FB8779B0B
:10049000FECF80E88FB9779BFECF809162008860A5
:1004A0008093620080916200877F8093620085ED77
:1004B0008A95F1F70000089590E131E020E23FB91C
:1004C000779BFECF2FB9779BFECF8091620088602B
:1004D0008093620080916200877F8093620085ED47
:1004E0008A95F1F70000915051F7089591E09FB976
:1004F000779BFECF8FB9779BFECF8091620088609B
:100500008093620080916200877F809362000895EB
:10051000FC0140E050E060E071E0DF01A40FB51F96
:100520008C917FB9779BFECF8FB9779BFECF90914F
:10053000620098609093620090916200977F909320
:10054000620085ED8A95F1F700006F5F462F50E05D
:10055000DF010D900020E9F79D012E1B3F0B22507B
:10056000310924173507C8F608958FEF99EF0197E1
:10057000F1F700C0000088E0809361001FB8779B0E
:10058000FECF80E38FB9779BFECF809162008860B9
:100590008093620080916200877F809362008FE584
:1005A0009DE60197F1F700C000001FB8779BFECFD2
:1005B00080E38FB9779BFECF809162008860809343
:1005C000620080916200877F809362008FE59DE6E4
:1005D0000197F1F700C000001FB8779BFECF80E3C2
:1005E0008FB9779BFECF8091620088608093620014
:1005F00080916200877F809362008FE59DE601977E
:10060000F1F700C000001FB8779BFECF88E38FB9D9
:10061000779BFECF8091620088608093620080911A
:100620006200877F809362008FE19EE40197F1F77B
:1006300000C000001FB8779BFECF88E08FB9779B82
:10064000FECF80916200886080936200809162009A
:10065000877F809362008FE19EE40197F1F700C0ED
:1006600000001FB8779BFECF81E08FB9779BFECF4C
:100670008091620088608093620080916200877F31
:10068000809362008FE19EE40197F1F700C00000C3
:100690001FB8779BFECF86E08FB9779BFECF809106
:1006A000620088608093620080916200877F8093FF
:1006B00062008FE19EE40197F1F700C000001FB8CF
:1006C000779BFECF8CE08FB9779BFECF8091620045
:1006D00088608093620080916200877F80936200CF
:1006E0008FE19EE40197F1F700C0000008954F925A
:1006F0005F926F927F928F929F92AF92BF92CF92B2
:10070000DF92EF92FF920F931F93CF93DF93CDB7BA
:10071000DEB769970FB6F894DEBF0FBECDBF142FBA
:10072000422E5E2C002379F06B017C01CC24F7FC77
:10073000C394DD24EE24FF240C2D6B017C0197FD76
:10074000A3C0C701B601442009F496C09E012F5FE3
:100750003F4F5901490166246A94640C712C3FEFA4
:10076000631A730A6A0C7B1C2AE030E040E050E018
:100770000E945206E62F2A8B3B8B4C8B5D8B6A893D
:100780007B898C899D8920E32E0FF40121934F01F1
:100790006E167F0649F799249394940CF501E40DA5
:1007A000F11D2EE220832AE030E040E050E00E947C
:1007B0005206E62F2A8B3B8B4C8B5D8B6E8B7F8B8F
:1007C000888F998F6A897B898C899D8931E0390D61
:1007D000D501A90DB11DE05DEC93932E6115710556
:1007E0008105910501F7112361F051104BC090E292
:1007F000311738F4F501E30FF11D90833F5F1313B8
:10080000F9CF002331F0F501E30FF11D9DE2908354
:100810003F5F21E03150F501E30FF11D90812FB9C9
:10082000779BFECF9FB9779BFECF90916200986037
:100830009093620090916200977F9093620085EDA3
:100840008A95F1F700003111E5CF69960FB6F8945B
:10085000DEBF0FBECDBFDF91CF911F910F91FF90F3
:10086000EF90DF90CF90BF90AF909F908F907F9050
:100870006F905F904F900895912C9E012F5F3F4F96
:10088000590191CF90E3B4CFF094E094D094C09408
:10089000C11CD11CE11CF11C54CF5F926F927F925E
:1008A0008F929F92AF92BF92CF92DF92EF92FF9280
:1008B0000F931F93CF93DF93CDB7DEB761970FB63A
:1008C000F894DEBF0FBECDBF5C01162F742E6B2CCB
:1008D000661C6624661C562C9C0197FD9BC07720E5
:1008E00009F48DC0CE0101967C016C0188248A94A4
:1008F000870C912C9FEF891A990A8E0C9F1C6AE035
:1009000070E0C9010E941C06462F242F372F805DFE
:10091000F60181936F01E815F90589F7DD24D39479
:10092000D70CF701E70DF11D8EE2808301C0D92EAF
:100930006AE070E0C9010E941C06462F242F372F61
:1009400091E09D0DF701ED0DF11D805D8083211576
:10095000310569F7011158C0B7FC61C01123A9F036
:10096000712C80E2292F30E0412F50E046195709C1
:100970002417350754F49F5FF701E20FF31F8083BC
:10098000292F30E024173507B4F3552031F0F70153
:10099000E90FF11D8DE280839F5F21E09150F70107
:1009A000E90FF11D80812FB9779BFECF8FB9779B1F
:1009B000FECF809162008860809362008091620027
:1009C000877F80936200E5EDEA95F1F700009111D1
:1009D000E5CF61960FB6F894DEBF0FBECDBFDF91B5
:1009E000CF911F910F91FF90EF90DF90CF90BF902C
:1009F000AF909F908F907F906F905F900895D12CD3
:100A0000CE0101967C0194CF112309F4BECF712C45
:100A100080E3A8CF22273327281B390B60CFD3943C
:100A2000D394F701E90FF11D8DE28083112359F072
:100A30002D2D30E0412F50E02417350724F49D2D53
:100A4000512C80E298CF9D2DA8CF87B3876087BBBC
:100A500080E58DB981E08EB90E94B502BF9AC79832
:100A600011BA80E090E0C0E0D0E044E4E42EF12C44
:100A70005DE7852E912CA12CB12C8130910509F4D4
:100A800054C08130910508F49DC08230910509F46D
:100A900077C08330910589F7C798CE01A0E0B0E018
:100AA000880F991FAA1FBB1F880F991FAA1FBB1F62
:100AB000BC01CD01660F771F881F991FA501940106
:100AC0000E94300629013A010E94000206B602FC8B
:100AD00006C0411451046104710409F499C006B6BA
:100AE00002FC8BC086E491E00E9488020E943002E2
:100AF00000E020E040E063E0C2010E944D0481E597
:100B000091E00E9488022FEF85EA9EE0215080400C
:100B10009040E1F700C0000080B38F3FE9F381E02F
:100B200090E08130910509F0ACCF0E94B50282E1DE
:100B300091E00E9488020E94300283E291E00E94CC
:100B4000880283B713BE87B717BE86B7816086BF9A
:100B500083B7876083BF0E94D006B7010E941C063E
:100B600066587F4F06B600FEFDCF86B7816086BF10
:100B700061507109B9F783B713BE82E090E07DCF71
:100B80008EB580748EBD8FB51FBC87B717BE8091A0
:100B90007D0010927D0086B7846086BF1DBC1CBCA2
:100BA0008EB585608EBDC79A03C080B38F3F19F4A0
:100BB00006B602FEFACFCCB5DDB58EB58EBD83E0AC
:100BC00090E05BCF0E94000284E091E00E948802E6
:100BD0000E94300282E191E00E9488022FEF81EEB4
:100BE00094E0215080409040E1F700C0000080B3C5
:100BF0008F3FE9F381E090E094CF85E591E00E949A
:100C000088020E94300285E691E00E9488027BCF34
:100C100084E391E00E9488020E9430028FE391E019
:100C20000E9488022FEF83ED90E321508040904096
:100C3000E1F700C0000067CF97FB072E16F4009481
:100C400007D077FD09D00E94710607FC05D03EF45D
:100C5000909581959F4F0895709561957F4F089568
:100C6000A1E21A2EAA1BBB1BFD010DC0AA1FBB1FB0
:100C7000EE1FFF1FA217B307E407F50720F0A21B22
:100C8000B30BE40BF50B661F771F881F991F1A948F
:100C900069F760957095809590959B01AC01BD01B9
:100CA000CF010895052E97FB1EF400940E9469065B
:100CB00057FD07D00E94300607FC03D04EF40C9479
:100CC000690650954095309521953F4F4F4F5F4FA6
:100CD000089590958095709561957F4F8F4F9F4FA8
:100CE0000895AA1BBB1B51E107C0AA1FBB1FA61773
:100CF000B70710F0A61BB70B881F991F5A95A9F7C5
:100D000080959095BC01CD0108958F929F92AF92EE
:100D1000BF92CF92DF92EF92FF92CF93DF93EC01DD
:100D2000688179818A819B816115710581059105B1
:100D300021F464E279ED8BE597E02DE133EF41E0BA
:100D400050E00E94520649015A019B01AC01A7EAFA
:100D5000B1E40E94DF066B017C01ACEEB4EFA501AB
:100D600094010E94ED06DC01CB018C0D9D1DAE1D92
:100D7000BF1DB7FF03C00197A109B04888839983BD
:100D8000AA83BB839F77DF91CF91FF90EF90DF9095
:100D9000CF90BF90AF909F908F9008950C94850650
:100DA00080E091E00C948506A0E0B0E08093000123
:100DB00090930101A0930201B093030108950E9452
:100DC000F206A59F900DB49F900DA49F800D911DDC
:100DD00011240895B7FF0C94DF060E94DF06821BE2
:100DE000930B0895A29FB001B39FC001A39F700D04
:100DF000811D1124911DB29F700D811D1124911D23
:060E00000895F894FFCFF5
:100E0600010000005245464C455820544553544570
:100E16005200507265737320616E79206275747426
:100E26006F6E006166746572204C4544206C69677C
:100E3600687473004368656174696E6721210052A6
:100E4600657472793F00596F75722074696D653AE1
:100E560000206D73002054696D6572206578706995
:100E66007265642E0050726573732062746E20740E
:060E76006F20727374008E
:00000001FF
